{
  "contractName": "election",
  "abi": [
    {
      "inputs": [],
      "stateMutability": "nonpayable",
      "type": "constructor"
    },
    {
      "anonymous": false,
      "inputs": [
        {
          "indexed": false,
          "internalType": "bool",
          "name": "voted",
          "type": "bool"
        },
        {
          "indexed": false,
          "internalType": "uint256",
          "name": "weight",
          "type": "uint256"
        }
      ],
      "name": "Authorise",
      "type": "event"
    },
    {
      "inputs": [
        {
          "internalType": "string",
          "name": "",
          "type": "string"
        }
      ],
      "name": "CandidateVotes",
      "outputs": [
        {
          "internalType": "uint256",
          "name": "",
          "type": "uint256"
        }
      ],
      "stateMutability": "view",
      "type": "function",
      "constant": true
    },
    {
      "inputs": [],
      "name": "admin",
      "outputs": [
        {
          "internalType": "address",
          "name": "",
          "type": "address"
        }
      ],
      "stateMutability": "view",
      "type": "function",
      "constant": true
    },
    {
      "inputs": [
        {
          "internalType": "string",
          "name": "x",
          "type": "string"
        }
      ],
      "name": "add_candidates",
      "outputs": [],
      "stateMutability": "nonpayable",
      "type": "function"
    },
    {
      "inputs": [
        {
          "internalType": "string",
          "name": "v",
          "type": "string"
        }
      ],
      "name": "vote",
      "outputs": [],
      "stateMutability": "nonpayable",
      "type": "function"
    },
    {
      "inputs": [
        {
          "internalType": "address",
          "name": "_address",
          "type": "address"
        }
      ],
      "name": "authorise",
      "outputs": [],
      "stateMutability": "nonpayable",
      "type": "function"
    },
    {
      "inputs": [],
      "name": "winner",
      "outputs": [
        {
          "internalType": "string[]",
          "name": "",
          "type": "string[]"
        }
      ],
      "stateMutability": "nonpayable",
      "type": "function"
    },
    {
      "inputs": [],
      "name": "get_time",
      "outputs": [
        {
          "internalType": "uint256",
          "name": "",
          "type": "uint256"
        }
      ],
      "stateMutability": "view",
      "type": "function",
      "constant": true
    },
    {
      "inputs": [],
      "name": "get_can",
      "outputs": [
        {
          "internalType": "string[]",
          "name": "",
          "type": "string[]"
        }
      ],
      "stateMutability": "view",
      "type": "function",
      "constant": true
    }
  ],
  "bytecode": "0x60806040523480156200001157600080fd5b50336000806101000a81548173ffffffffffffffffffffffffffffffffffffffff021916908373ffffffffffffffffffffffffffffffffffffffff1602179055506001600360008060009054906101000a900473ffffffffffffffffffffffffffffffffffffffff1673ffffffffffffffffffffffffffffffffffffffff1673ffffffffffffffffffffffffffffffffffffffff1681526020019081526020016000206001018190555042600581905550600180600181540180825580915050600190039060005260206000200160006040518060400160405280600481526020017f4e4f544100000000000000000000000000000000000000000000000000000000815250909190915090805190602001906200013192919062000138565b506200024d565b8280546200014690620001e8565b90600052602060002090601f0160209004810192826200016a5760008555620001b6565b82601f106200018557805160ff1916838001178555620001b6565b82800160010185558215620001b6579182015b82811115620001b557825182559160200191906001019062000198565b5b509050620001c59190620001c9565b5090565b5b80821115620001e4576000816000905550600101620001ca565b5090565b600060028204905060018216806200020157607f821691505b602082108114156200021857620002176200021e565b5b50919050565b7f4e487b7100000000000000000000000000000000000000000000000000000000600052602260045260246000fd5b611333806200025d6000396000f3fe608060405234801561001057600080fd5b50600436106100885760003560e01c8063dfbf53ae1161005b578063dfbf53ae14610113578063e76de1cc14610131578063f851a4401461014f578063fc36e15b1461016d57610088565b80634dedc7301461008d57806366e6c8af146100a957806388acc05c146100c5578063966a1961146100f5575b600080fd5b6100a760048036038101906100a29190610b76565b610189565b005b6100c360048036038101906100be9190610b49565b610256565b005b6100df60048036038101906100da9190610b76565b6104b6565b6040516100ec9190610ebb565b60405180910390f35b6100fd6104e4565b60405161010a9190610ebb565b60405180910390f35b61011b6104ee565b6040516101289190610e10565b60405180910390f35b610139610733565b6040516101469190610e10565b60405180910390f35b61015761080c565b6040516101649190610df5565b60405180910390f35b61018760048036038101906101829190610b76565b610830565b005b60008054906101000a900473ffffffffffffffffffffffffffffffffffffffff1673ffffffffffffffffffffffffffffffffffffffff163373ffffffffffffffffffffffffffffffffffffffff1614610217576040517f08c379a000000000000000000000000000000000000000000000000000000000815260040161020e90610e5b565b60405180910390fd5b600181908060018154018082558091505060019003906000526020600020016000909190919091509080519060200190610252929190610994565b5050565b8060008054906101000a900473ffffffffffffffffffffffffffffffffffffffff1673ffffffffffffffffffffffffffffffffffffffff163373ffffffffffffffffffffffffffffffffffffffff16141580610305575060011515600360008373ffffffffffffffffffffffffffffffffffffffff1673ffffffffffffffffffffffffffffffffffffffff16815260200190815260200160002060000160009054906101000a900460ff161515145b15610345576040517f08c379a000000000000000000000000000000000000000000000000000000000815260040161033c90610e7b565b60405180910390fd5b6000600360008473ffffffffffffffffffffffffffffffffffffffff1673ffffffffffffffffffffffffffffffffffffffff16815260200190815260200160002060000160006101000a81548160ff0219169083151502179055506001600360008473ffffffffffffffffffffffffffffffffffffffff1673ffffffffffffffffffffffffffffffffffffffff168152602001908152602001600020600101819055507f97f595eadc412843210761cb14b01e222262e71ee25b0cbac3b36727905b0dfc600360008473ffffffffffffffffffffffffffffffffffffffff1673ffffffffffffffffffffffffffffffffffffffff16815260200190815260200160002060000160009054906101000a900460ff16600360008573ffffffffffffffffffffffffffffffffffffffff1673ffffffffffffffffffffffffffffffffffffffff168152602001908152602001600020600101546040516104aa929190610e32565b60405180910390a15050565b6002818051602081018201805184825260208301602085012081835280955050505050506000915090505481565b6000600554905090565b60606000805b60018054905081101561059557816002600183815481106105185761051761119c565b5b9060005260206000200160405161052f9190610dde565b90815260200160405180910390205410610582576002600182815481106105595761055861119c565b5b906000526020600020016040516105709190610dde565b90815260200160405180910390205491505b808061058d906110f5565b9150506104f4565b5060005b60018054905081101561065a57816002600183815481106105bd576105bc61119c565b5b906000526020600020016040516105d49190610dde565b9081526020016040518091039020541415610647576004600182815481106105ff576105fe61119c565b5b906000526020600020019080600181540180825580915050600190039060005260206000200160009091909190915090805461063a90611092565b610645929190610a1a565b505b8080610652906110f5565b915050610599565b506004805480602002602001604051908101604052809291908181526020016000905b8282101561072957838290600052602060002001805461069c90611092565b80601f01602080910402602001604051908101604052809291908181526020018280546106c890611092565b80156107155780601f106106ea57610100808354040283529160200191610715565b820191906000526020600020905b8154815290600101906020018083116106f857829003601f168201915b50505050508152602001906001019061067d565b5050505091505090565b60606001805480602002602001604051908101604052809291908181526020016000905b8282101561080357838290600052602060002001805461077690611092565b80601f01602080910402602001604051908101604052809291908181526020018280546107a290611092565b80156107ef5780601f106107c4576101008083540402835291602001916107ef565b820191906000526020600020905b8154815290600101906020018083116107d257829003601f168201915b505050505081526020019060010190610757565b50505050905090565b60008054906101000a900473ffffffffffffffffffffffffffffffffffffffff1681565b6001808054905011610877576040517f08c379a000000000000000000000000000000000000000000000000000000000815260040161086e90610e9b565b60405180910390fd5b600360003373ffffffffffffffffffffffffffffffffffffffff1673ffffffffffffffffffffffffffffffffffffffff168152602001908152602001600020600101546002826040516108ca9190610dc7565b908152602001604051809103902060008282546108e79190610fb2565b925050819055506000600360003373ffffffffffffffffffffffffffffffffffffffff1673ffffffffffffffffffffffffffffffffffffffff168152602001908152602001600020600101819055506001600360003373ffffffffffffffffffffffffffffffffffffffff1673ffffffffffffffffffffffffffffffffffffffff16815260200190815260200160002060000160006101000a81548160ff02191690831515021790555050565b8280546109a090611092565b90600052602060002090601f0160209004810192826109c25760008555610a09565b82601f106109db57805160ff1916838001178555610a09565b82800160010185558215610a09579182015b82811115610a085782518255916020019190600101906109ed565b5b509050610a169190610aa7565b5090565b828054610a2690611092565b90600052602060002090601f016020900481019282610a485760008555610a96565b82601f10610a595780548555610a96565b82800160010185558215610a9657600052602060002091601f016020900482015b82811115610a95578254825591600101919060010190610a7a565b5b509050610aa39190610aa7565b5090565b5b80821115610ac0576000816000905550600101610aa8565b5090565b6000610ad7610ad284610efb565b610ed6565b905082815260208101848484011115610af357610af26111ff565b5b610afe848285611050565b509392505050565b600081359050610b15816112e6565b92915050565b600082601f830112610b3057610b2f6111fa565b5b8135610b40848260208601610ac4565b91505092915050565b600060208284031215610b5f57610b5e611209565b5b6000610b6d84828501610b06565b91505092915050565b600060208284031215610b8c57610b8b611209565b5b600082013567ffffffffffffffff811115610baa57610ba9611204565b5b610bb684828501610b1b565b91505092915050565b6000610bcb8383610c66565b905092915050565b610bdc81611008565b82525050565b6000610bed82610f51565b610bf78185610f74565b935083602082028501610c0985610f2c565b8060005b85811015610c455784840389528151610c268582610bbf565b9450610c3183610f67565b925060208a01995050600181019050610c0d565b50829750879550505050505092915050565b610c608161101a565b82525050565b6000610c7182610f5c565b610c7b8185610f85565b9350610c8b81856020860161105f565b610c948161120e565b840191505092915050565b6000610caa82610f5c565b610cb48185610fa7565b9350610cc481856020860161105f565b80840191505092915050565b60008154610cdd81611092565b610ce78186610fa7565b94506001821660008114610d025760018114610d1357610d46565b60ff19831686528186019350610d46565b610d1c85610f3c565b60005b83811015610d3e57815481890152600182019150602081019050610d1f565b838801955050505b50505092915050565b6000610d5c602883610f96565b9150610d678261121f565b604082019050919050565b6000610d7f600883610f96565b9150610d8a8261126e565b602082019050919050565b6000610da2603883610f96565b9150610dad82611297565b604082019050919050565b610dc181611046565b82525050565b6000610dd38284610c9f565b915081905092915050565b6000610dea8284610cd0565b915081905092915050565b6000602082019050610e0a6000830184610bd3565b92915050565b60006020820190508181036000830152610e2a8184610be2565b905092915050565b6000604082019050610e476000830185610c57565b610e546020830184610db8565b9392505050565b60006020820190508181036000830152610e7481610d4f565b9050919050565b60006020820190508181036000830152610e9481610d72565b9050919050565b60006020820190508181036000830152610eb481610d95565b9050919050565b6000602082019050610ed06000830184610db8565b92915050565b6000610ee0610ef1565b9050610eec82826110c4565b919050565b6000604051905090565b600067ffffffffffffffff821115610f1657610f156111cb565b5b610f1f8261120e565b9050602081019050919050565b6000819050602082019050919050565b60008190508160005260206000209050919050565b600081519050919050565b600081519050919050565b6000602082019050919050565b600082825260208201905092915050565b600082825260208201905092915050565b600082825260208201905092915050565b600081905092915050565b6000610fbd82611046565b9150610fc883611046565b9250827fffffffffffffffffffffffffffffffffffffffffffffffffffffffffffffffff03821115610ffd57610ffc61113e565b5b828201905092915050565b600061101382611026565b9050919050565b60008115159050919050565b600073ffffffffffffffffffffffffffffffffffffffff82169050919050565b6000819050919050565b82818337600083830152505050565b60005b8381101561107d578082015181840152602081019050611062565b8381111561108c576000848401525b50505050565b600060028204905060018216806110aa57607f821691505b602082108114156110be576110bd61116d565b5b50919050565b6110cd8261120e565b810181811067ffffffffffffffff821117156110ec576110eb6111cb565b5b80604052505050565b600061110082611046565b91507fffffffffffffffffffffffffffffffffffffffffffffffffffffffffffffffff8214156111335761113261113e565b5b600182019050919050565b7f4e487b7100000000000000000000000000000000000000000000000000000000600052601160045260246000fd5b7f4e487b7100000000000000000000000000000000000000000000000000000000600052602260045260246000fd5b7f4e487b7100000000000000000000000000000000000000000000000000000000600052603260045260246000fd5b7f4e487b7100000000000000000000000000000000000000000000000000000000600052604160045260246000fd5b600080fd5b600080fd5b600080fd5b600080fd5b6000601f19601f8301169050919050565b7f594f5520415245204e4f5420415554484f524953454420544f2041444420434160008201527f4e44494441544553000000000000000000000000000000000000000000000000602082015250565b7f4552524f52212121000000000000000000000000000000000000000000000000600082015250565b7f4e4f542053554646494349454e54204e554d424552204f462043414e4449444160008201527f4454455320544f20434f4e4455435420454c454354494f4e0000000000000000602082015250565b6112ef81611008565b81146112fa57600080fd5b5056fea2646970667358221220bf5ea8b5067a0dfcbd868e4785fc2fd0534a5b27036ce9cf7e3993ed1cba02cd64736f6c63430008070033",
  "immutableReferences": {},
  "source": "// SPDX-License-Identifier: MIT\r\npragma solidity >=0.4.21 <0.9.0;\r\npragma abicoder v2;\r\n\r\ncontract election\r\n{\r\n    struct voter\r\n    {\r\n        bool voted;\r\n        uint weight;\r\n    }\r\n    event Authorise(bool voted,uint weight);\r\n    \r\n    \r\n    address public admin;\r\n    string[] Candidates;\r\n    mapping(string => uint) public CandidateVotes;\r\n    mapping(address=>voter) voterlist;\r\n    string[] winners;\r\n    uint StartTime;\r\n    \r\n    constructor()\r\n    {\r\n        admin=msg.sender;\r\n        voterlist[admin].weight=1;\r\n        StartTime=block.timestamp;\r\n        Candidates.push(\"NOTA\");\r\n    }\r\n    modifier add_candidates_requirements()\r\n    {\r\n        if(msg.sender!=admin)\r\n        {\r\n            revert(\"YOU ARE NOT AUTHORISED TO ADD CANDIDATES\");\r\n        }\r\n        _;\r\n    }\r\n    function add_candidates (string memory x) public add_candidates_requirements\r\n    {\r\n        Candidates.push(x);\r\n        \r\n    }\r\n    modifier Vote_requirements()\r\n    {\r\n        if(Candidates.length<=1)\r\n        {\r\n            \r\n            revert(\"NOT SUFFICIENT NUMBER OF CANDIDADTES TO CONDUCT ELECTION\");\r\n        }\r\n        _;\r\n    }\r\n    function vote(string memory v) public Vote_requirements\r\n    {\r\n        CandidateVotes[v]+=voterlist[msg.sender].weight;\r\n        voterlist[msg.sender].weight=0;\r\n        voterlist[msg.sender].voted=true;\r\n    }\r\n\r\n function authorise (address _address) public verify(_address)\r\n {\r\n voterlist[_address].voted=false;\r\n voterlist[_address].weight=1;\r\n emit Authorise(voterlist[_address].voted,voterlist[_address].weight);\r\n\r\n }\r\n modifier verify(address _address)\r\n {\r\n if(msg.sender != admin || voterlist[_address].voted==true)\r\n {\r\n    \r\n revert(\"ERROR!!!\");\r\n }\r\n _;\r\n }\r\n    \r\n\r\n    function winner() public returns(string[] memory)\r\n    {\r\n        uint maximum=0;\r\n        for(uint i=0; i<Candidates.length; i++)\r\n        {\r\n            if(CandidateVotes[Candidates[i]]>=maximum)\r\n            maximum=CandidateVotes[Candidates[i]];\r\n        }\r\n        for(uint i=0; i<Candidates.length; i++)\r\n        {\r\n            if(CandidateVotes[Candidates[i]]==maximum)\r\n            winners.push(Candidates[i]);\r\n        }\r\n        return winners;\r\n    }\r\n    function get_time() public view returns(uint){\r\n    return StartTime ;}\r\n\r\n    function get_can() public view returns(string[] memory){\r\n    return Candidates ;}\r\n\r\n}",
  "sourcePath": "/Users/akshittguruvelli/Downloads/dapp/contracts/election.sol",
  "compiler": {
    "name": "solc",
    "version": "0.8.7+commit.e28d00a7.Emscripten.clang"
  },
  "schemaVersion": "3.4.2",
  "updatedAt": "2021-08-24T16:25:42.891Z",
  "networkType": "ethereum",
  "devdoc": {
    "kind": "dev",
    "methods": {},
    "version": 1
  },
  "userdoc": {
    "kind": "user",
    "methods": {},
    "version": 1
  }
}