{
  "contractName": "voter",
  "abi": [
    {
      "inputs": [
        {
          "internalType": "address",
          "name": "sender",
          "type": "address"
        }
      ],
      "stateMutability": "nonpayable",
      "type": "constructor"
    },
    {
      "inputs": [
        {
          "internalType": "address",
          "name": "token",
          "type": "address"
        },
        {
          "internalType": "address",
          "name": "sender",
          "type": "address"
        },
        {
          "internalType": "uint256",
          "name": "value",
          "type": "uint256"
        }
      ],
      "name": "transferfrom",
      "outputs": [
        {
          "internalType": "uint256",
          "name": "",
          "type": "uint256"
        }
      ],
      "stateMutability": "nonpayable",
      "type": "function"
    },
    {
      "inputs": [
        {
          "internalType": "address",
          "name": "token",
          "type": "address"
        },
        {
          "internalType": "address",
          "name": "sender",
          "type": "address"
        },
        {
          "internalType": "uint256",
          "name": "value",
          "type": "uint256"
        }
      ],
      "name": "approve",
      "outputs": [
        {
          "internalType": "bool",
          "name": "",
          "type": "bool"
        }
      ],
      "stateMutability": "nonpayable",
      "type": "function"
    },
    {
      "inputs": [
        {
          "internalType": "address",
          "name": "token",
          "type": "address"
        },
        {
          "internalType": "address",
          "name": "owner",
          "type": "address"
        }
      ],
      "name": "ballanceof",
      "outputs": [
        {
          "internalType": "uint256",
          "name": "",
          "type": "uint256"
        }
      ],
      "stateMutability": "nonpayable",
      "type": "function"
    },
    {
      "inputs": [
        {
          "internalType": "address",
          "name": "token",
          "type": "address"
        },
        {
          "internalType": "address",
          "name": "sender",
          "type": "address"
        },
        {
          "internalType": "uint256",
          "name": "value",
          "type": "uint256"
        }
      ],
      "name": "increase_allowence",
      "outputs": [
        {
          "internalType": "bool",
          "name": "",
          "type": "bool"
        }
      ],
      "stateMutability": "nonpayable",
      "type": "function"
    },
    {
      "inputs": [
        {
          "internalType": "address",
          "name": "token",
          "type": "address"
        },
        {
          "internalType": "address",
          "name": "spender",
          "type": "address"
        }
      ],
      "name": "allowence",
      "outputs": [
        {
          "internalType": "uint256",
          "name": "",
          "type": "uint256"
        }
      ],
      "stateMutability": "nonpayable",
      "type": "function"
    },
    {
      "inputs": [],
      "name": "get",
      "outputs": [
        {
          "internalType": "address",
          "name": "",
          "type": "address"
        }
      ],
      "stateMutability": "view",
      "type": "function",
      "constant": true
    }
  ],
  "bytecode": "0x60806040523480156200001157600080fd5b5060405162000b1138038062000b1183398181016040528101906200003791906200019c565b336000806101000a81548173ffffffffffffffffffffffffffffffffffffffff021916908373ffffffffffffffffffffffffffffffffffffffff16021790555080600160006101000a81548173ffffffffffffffffffffffffffffffffffffffff021916908373ffffffffffffffffffffffffffffffffffffffff160217905550600073fd3d5e1999e66a810e4039619924ed02f9927aa690508073ffffffffffffffffffffffffffffffffffffffff1663095ea7b383600a6040518363ffffffff1660e01b81526004016200010f92919062000222565b602060405180830381600087803b1580156200012a57600080fd5b505af11580156200013f573d6000803e3d6000fd5b505050506040513d601f19601f82011682018060405250810190620001659190620001ce565b505050620002e6565b6000815190506200017f81620002b2565b92915050565b6000815190506200019681620002cc565b92915050565b600060208284031215620001b557620001b4620002ad565b5b6000620001c5848285016200016e565b91505092915050565b600060208284031215620001e757620001e6620002ad565b5b6000620001f78482850162000185565b91505092915050565b6200020b816200024f565b82525050565b6200021c8162000299565b82525050565b600060408201905062000239600083018562000200565b62000248602083018462000211565b9392505050565b60006200025c826200026f565b9050919050565b60008115159050919050565b600073ffffffffffffffffffffffffffffffffffffffff82169050919050565b6000819050919050565b6000620002a6826200028f565b9050919050565b600080fd5b620002bd816200024f565b8114620002c957600080fd5b50565b620002d78162000263565b8114620002e357600080fd5b50565b61081b80620002f66000396000f3fe608060405234801561001057600080fd5b50600436106100625760003560e01c806307acaa571461006757806363b0545f146100975780636d4ce63c146100c757806395e6b006146100e5578063a77a823014610115578063e1f21c6714610145575b600080fd5b610081600480360381019061007c919061059f565b610175565b60405161008e919061071d565b60405180910390f35b6100b160048036038101906100ac919061059f565b610212565b6040516100be9190610738565b60405180910390f35b6100cf6102f1565b6040516100dc9190610679565b60405180910390f35b6100ff60048036038101906100fa919061055f565b61031a565b60405161010c9190610738565b60405180910390f35b61012f600480360381019061012a919061055f565b6103d4565b60405161013c9190610738565b60405180910390f35b61015f600480360381019061015a919061059f565b61046e565b60405161016c919061071d565b60405180910390f35b6000808490508073ffffffffffffffffffffffffffffffffffffffff16633950935185856040518363ffffffff1660e01b81526004016101b69291906106f4565b602060405180830381600087803b1580156101d057600080fd5b505af11580156101e4573d6000803e3d6000fd5b505050506040513d601f19601f8201168201806040525081019061020891906105f2565b9150509392505050565b60008084905060008173ffffffffffffffffffffffffffffffffffffffff166323b872dd60008054906101000a900473ffffffffffffffffffffffffffffffffffffffff1687876040518463ffffffff1660e01b8152600401610277939291906106bd565b602060405180830381600087803b15801561029157600080fd5b505af11580156102a5573d6000803e3d6000fd5b505050506040513d601f19601f820116820180604052508101906102c991906105f2565b90506001151581151514156102e3576001925050506102ea565b6000925050505b9392505050565b60008060009054906101000a900473ffffffffffffffffffffffffffffffffffffffff16905090565b6000808390508073ffffffffffffffffffffffffffffffffffffffff166370a08231600160009054906101000a900473ffffffffffffffffffffffffffffffffffffffff166040518263ffffffff1660e01b815260040161037b9190610679565b60206040518083038186803b15801561039357600080fd5b505afa1580156103a7573d6000803e3d6000fd5b505050506040513d601f19601f820116820180604052508101906103cb919061061f565b91505092915050565b6000808390508073ffffffffffffffffffffffffffffffffffffffff1663dd62ed3e33856040518363ffffffff1660e01b8152600401610415929190610694565b60206040518083038186803b15801561042d57600080fd5b505afa158015610441573d6000803e3d6000fd5b505050506040513d601f19601f82011682018060405250810190610465919061061f565b91505092915050565b6000808490508073ffffffffffffffffffffffffffffffffffffffff1663095ea7b385856040518363ffffffff1660e01b81526004016104af9291906106f4565b602060405180830381600087803b1580156104c957600080fd5b505af11580156104dd573d6000803e3d6000fd5b505050506040513d601f19601f8201168201806040525081019061050191906105f2565b9150509392505050565b60008135905061051a816107a0565b92915050565b60008151905061052f816107b7565b92915050565b600081359050610544816107ce565b92915050565b600081519050610559816107ce565b92915050565b600080604083850312156105765761057561079b565b5b60006105848582860161050b565b92505060206105958582860161050b565b9150509250929050565b6000806000606084860312156105b8576105b761079b565b5b60006105c68682870161050b565b93505060206105d78682870161050b565b92505060406105e886828701610535565b9150509250925092565b6000602082840312156106085761060761079b565b5b600061061684828501610520565b91505092915050565b6000602082840312156106355761063461079b565b5b60006106438482850161054a565b91505092915050565b61065581610753565b82525050565b61066481610765565b82525050565b61067381610791565b82525050565b600060208201905061068e600083018461064c565b92915050565b60006040820190506106a9600083018561064c565b6106b6602083018461064c565b9392505050565b60006060820190506106d2600083018661064c565b6106df602083018561064c565b6106ec604083018461066a565b949350505050565b6000604082019050610709600083018561064c565b610716602083018461066a565b9392505050565b6000602082019050610732600083018461065b565b92915050565b600060208201905061074d600083018461066a565b92915050565b600061075e82610771565b9050919050565b60008115159050919050565b600073ffffffffffffffffffffffffffffffffffffffff82169050919050565b6000819050919050565b600080fd5b6107a981610753565b81146107b457600080fd5b50565b6107c081610765565b81146107cb57600080fd5b50565b6107d781610791565b81146107e257600080fd5b5056fea2646970667358221220797c95d25a3ceb97c011c12a3b06f178b60c9113f5a53ba42743b9306bda55cc64736f6c63430008060033",
  "immutableReferences": {},
  "source": "// SPDX-License-Identifier: MIT\r\npragma solidity >=0.4.21 <0.9.0;\r\n\r\nimport \"./stoken.sol\";\r\ncontract voter {\r\n    address admin;\r\n    address t;\r\n   \r\n    constructor(address sender) {\r\n        admin =msg.sender;\r\n        t =sender;\r\n        stoken token1= stoken(0xFD3D5e1999e66a810e4039619924eD02f9927Aa6);\r\n        token1.approve(sender,10);\r\n        \r\n    }\r\n\r\n\r\n    function transferfrom(address token, address sender, uint value) public returns(uint){\r\n        \r\n        stoken token1= stoken(token);\r\n    \r\n        bool x=token1.transferFrom(admin, sender,value);\r\n        if(x==true){\r\n            return 1;\r\n\r\n        }\r\n        return 0;\r\n\r\n\r\n\r\n    }\r\n\r\n    function approve(address token , address sender, uint value) public returns(bool){\r\n        stoken token1= stoken(token);\r\n        return token1.approve(sender, value);\r\n        \r\n    }\r\n\r\n    function ballanceof(address token , address owner) public returns(uint) {\r\n        stoken token1=stoken(token);\r\n        return token1.balanceOf(t);\r\n    }\r\n\r\n    function increase_allowence(address token , address sender, uint value)public returns(bool){\r\n        stoken token1=stoken(token);\r\n        return token1.increaseAllowance(sender, value);\r\n    }\r\n\r\n    function allowence(address token, address spender) public returns(uint){\r\n        stoken token1=stoken(token);\r\n        return token1.allowance(msg.sender, spender);\r\n    }\r\n\r\n    \r\n\r\n    function get() public view returns(address){\r\n        \r\n        return (admin);\r\n    }\r\n}",
  "sourcePath": "C:\\Users\\srava\\OneDrive\\Desktop\\dapp\\contracts\\voter.sol",
  "compiler": {
    "name": "solc",
    "version": "0.8.6+commit.11564f7e.Emscripten.clang"
  },
  "schemaVersion": "3.4.2",
  "updatedAt": "2021-07-31T14:05:50.872Z",
  "networkType": "ethereum",
  "devdoc": {
    "kind": "dev",
    "methods": {},
    "version": 1
  },
  "userdoc": {
    "kind": "user",
    "methods": {},
    "version": 1
  }
}